:10000000002000100D0100008501000085010000A6
:1000100000000000000000000000000000000000E0
:10002000000000000000000000000000850100004A
:100030000000000000000000850100008D010000AC
:100040008501000085010000850100008501000098
:100050008501000085010000850100008501000088
:100060008501000085010000850100008501000078
:100070008501000085010000850100008501000068
:100080008501000085010000850100008501000058
:100090008501000085010000850100008501000048
:1000A0008501000085010000850100008501000038
:1000B0008501000085010000850100008501000028
:1000C00080B500AF0B4B00221A600B4B23221A6045
:1000D0000A4B0A4A126880218A431A60084B01229F
:1000E0001A60084B03221A60074B01221A60BD46B2
:1000F00080BDC046408004400880044038820440EF
:1001000044800440708004407480044080B584B012
:1001100000AF174BFB60174BBB60174A154BD31A48
:100120007B6007E0BB685A1CBA60FA68511CF96032
:1001300012781A707B685A1E7A60002BF2D10F4B2E
:10014000BB600F4A0D4BD31A7B6004E0BB685A1C9E
:10015000BA6000221A707B685A1E7A60002BF5D1B3
:10016000FFF7AEFF00F046F9BD4604B080BDC046C3
:1001700078040000000000100000001000000010D3
:100180000000001080B500AFFEE7C04680B500AFAC
:10019000BD4680BD80B500AF0F4B0F4A12680F49B6
:1001A0000A431A600E4B0E4A126803218A431A60F2
:1001B0000C4B0C4A126804210A431A600A4B0222B3
:1001C0001A600A4B094A126810218A431A60084BC8
:1001D000084A1A60BD4680BD80800440402001006E
:1001E0001C400440008000507840044038820440A5
:1001F00000C00140020B000080B500AF224B224A34
:10020000126822490A431A60214B214A12680121CF
:100210000A431A601E4B1E4A126806218A431A605E
:100220001C4B1C4A126801210A431A60194B194AD7
:10023000126806218A431A60134B134A1268802100
:1002400049010A431A60144B01221A60134B134AE6
:10025000126880210A431A60114B10221A60114B58
:1002600038221A60104B01221A600C4B0B4A12689C
:1002700080218A431A60094B084A126803210A4305
:100280001A60BD4680BDC046808004404000010029
:10029000A4400440A8400440988004400C800040E2
:1002A00028800040008000400480004080B582B07B
:1002B00000AF7860C0467B685A1E7A60002BFAD186
:1002C000BD4602B080BDC04680B582B000AF021C02
:1002D000FB1D1A70064BFA1D12781A60C046054BBA
:1002E0001A6820231340FAD0BD4602B080BDC04634
:1002F000008000401480004080B582B000AF78607C
:1003000007E07B681B78181CFFF7DEFF7B68013372
:100310007B607B681B78002BF3D1BD4602B080BDAB
:1003200080B582B000AF78607B68002B07DB7B680C
:10033000092B04DC7B68DBB23033DBB20BE07B687B
:10034000092B07DD7B680F2B04DC7B68DBB23733BE
:10035000DBB200E07A23181CBD4602B080BDC04667
:1003600080B586B000AF786008237B613A1C083204
:100370007B69D31800221A707B69013B7B6112E014
:100380007A680F231340181CFFF7CAFF031C1A1CBE
:10039000391C08317B69CB181A707B681B097B609C
:1003A0007B69013B7B617B69002BE9DA3B1C0833ED
:1003B000181CFFF7A1FFBD4606B080BD80B500AF99
:1003C000094B094A126809490A431A60C046084B9A
:1003D0001B68002BFBDA064B1B689B099B059B0DDA
:1003E000181CBD4680BDC04600C00140020000018F
:1003F00004C0014080B582B000AFFFF7FDFEFFF7FB
:10040000C9FE00237B600C4B181CFFF775FFFFF73C
:10041000D5FF031C3B60094B181CFFF76DFF3B68C1
:10042000181CFFF79DFF064B181CFFF765FF054BD7
:10043000181CFFF73BFFEAE74804000058040000DF
:080440007404000040420F00AB
:1004480048656C6C6F20776F726C640D0A00000051
:100458005468652076616C7565206F662041444359
:1004680020496E7075742069732000000D0A000021
:00000001FF
