:10000000002000100D01000099010000990100007E
:1000100000000000000000000000000000000000E0
:100020000000000000000000000000009901000036
:10003000000000000000000099010000A101000084
:100040009901000099010000990100009901000048
:100050009901000099010000990100009901000038
:100060009901000099010000990100009901000028
:100070009901000099010000990100009901000018
:100080009901000099010000990100009901000008
:1000900099010000990100009901000099010000F8
:1000A00099010000990100009901000099010000E8
:1000B00099010000990100009901000099010000D8
:1000C00080B500AF0B4B00221A600B4B23221A6045
:1000D0000A4B0A4A126880218A431A60084B01229F
:1000E0001A60084B03221A60074B01221A60BD46B2
:1000F00080BDC046408004400880044038820440EF
:1001000044800440708004407480044080B584B012
:1001100000AF1C4BFB601C4BBB601C4A1A4BD31A34
:100120007B6009E0FB681A78BB681A70BB68013312
:10013000BB60FB680133FB607B685A1E9341DBB2F6
:100140007A68013A7A60002BECD1114BBB60114AFE
:100150000F4BD31A7B6005E0BB6800221A70BB68A6
:100160000133BB607B685A1E9341DBB27A68013A67
:100170007A60002BF0D1FFF7A3FF00F01FF9BD4616
:1001800004B080BDCC04000000000010040000108A
:10019000040000101800001080B500AFFEE7C04654
:1001A00080B500AF294B1B685A1C284B1A60274B9F
:1001B0001A68274B9A4202DD244B00221A60254B15
:1001C0001B68022B13D002DC012B05D030E0032B7F
:1001D00018D0042B21D02BE01F4B0E221A601E4B8F
:1001E0001D4A11681D4A12680A431A6020E01A4B22
:1001F00016221A60184B184A1168184A52680A43A6
:100200001A6015E0144B1A221A60134B124A116837
:10021000124A92680A431A600AE00F4B1C221A60C5
:100220000D4B0D4A11680D4AD2680A431A60C04648
:10023000084B1B685A1C074B1A60064B1B68042BA3
:1002400002DD044B01221A60BD4680BD040000108F
:10025000E703000000000010FC3F00500800001001
:1002600080B500AF074B074A126807210A431A609E
:10027000054B064A1A60064B05221A6062B6BD4657
:1002800080BDC04610E000E014E000E07FBB00004D
:1002900018E000E080B582B000AF7860C0467B68AF
:1002A0005A1E9341DBB27A68013A7A60002BF6D18C
:1002B000BD4602B080BDC04680B582B000AF786058
:1002C0007B68181C0A2100F0EBF80B1C1A1C224B4F
:1002D0005200D35A1AB2214B1A607B68181C0A21AB
:1002E00000F088F8031C7B607B68181C0A2100F072
:1002F000D7F80B1C1A1C184B5200D35A1AB2174BC2
:100300005A607B68181C0A2100F074F8031C7B609B
:100310007B68181C0A2100F0C3F80B1C1A1C0E4B3A
:100320005200D35A1AB20D4B9A607B68181C0A21EE
:1003300000F060F8031C7B607B68181C0A2100F049
:10034000AFF80B1C1A1C044B5200D35A1AB2034BC1
:10035000DA60BD4602B080BDB8040000080000109D
:1003600080B500AF0D4B0D4A12680D490A431A6063
:100370000C4B0D4A1A600D4B1E221A600C4B0C4A96
:100380001268802149000A431A600A4B01221A6050
:10039000094B01221A60BD4680BDC04680800440E2
:1003A0004000010000800050FE0F0000FC3F0050A4
:1003B00034400440684004407440044080B582B03A
:1003C00000AFFFF74DFFFFF7CBFF00237B6000E09E
:1003D000C0467B687A6801327A60181CFFF76CFFB0
:1003E0007A68034B9A42F3DD00237B60F0E7C04656
:1003F0000F270000002941D010B4041C4C40A44633
:1004000001230022002900D54942002800D540429E
:1004100088422CD301242407A14204D2814202D273
:1004200009011B01F8E7E400A14204D2814202D293
:1004300049005B00F8E7884201D3401A1A434C0890
:10044000A04202D3001B5C0822438C08A04202D3C6
:10045000001B9C082243CC08A04202D3001BDC08EE
:100460002243002803D01B0901D00909E3E7101C2F
:100470006446002C00D5404210BC7047002806D0CE
:1004800003DB0020C043400801E08020000607B4E1
:10049000024802A14018029003BDC04619000000A6
:1004A0000029EBD003B5FFF7A7FF0EBC4243891A22
:0804B0001847C0467047C04622
:1004B800E007C000600BE009C00CA00DA00FE00031
:0404C800E00FE00D54
:0404CC00010000002B
:00000001FF
