:10000000002000100D0100008501000085010000A6
:1000100000000000000000000000000000000000E0
:10002000000000000000000000000000850100004A
:1000300000000000000000008501000085010000B4
:100040008501000085010000850100008501000098
:100050008501000085010000850100008501000088
:100060008501000085010000850100008501000078
:100070008501000085010000850100008501000068
:100080008501000085010000850100008501000058
:100090008501000085010000850100008501000048
:1000A0008501000085010000850100008501000038
:1000B0008501000085010000850100008501000028
:1000C00080B500AF0B4B00221A600B4B23221A6045
:1000D0000A4B0A4A126880218A431A60084B01229F
:1000E0001A60084B03221A60074B01221A60BD46B2
:1000F00080BDC046408004400880044038820440EF
:1001000044800440708004407480044080B584B012
:1001100000AF174BFB60174BBB60174A154BD31A48
:100120007B6007E0BB685A1CBA60FA68511CF96032
:1001300012781A707B685A1E7A60002BF2D10F4B2E
:10014000BB600F4A0D4BD31A7B6004E0BB685A1C9E
:10015000BA6000221A707B685A1E7A60002BF5D1B3
:10016000FFF7AEFF00F0E8F8BD4604B080BDC04622
:100170004404000000000010000000100000001007
:100180001000001080B500AFFEE7C04680B582B019
:1001900000AF7860C0467B685A1E7A60002BFAD1A7
:1001A000BD4602B080BDC04680B582B000AF786069
:1001B0007B68181C0A2100F02FF90B1C1A1C224B1B
:1001C0005200D35A1AB2214B1A607B68181C0A21BC
:1001D00000F0CCF8031C7B607B68181C0A2100F03F
:1001E0001BF90B1C1A1C184B5200D35A1AB2174B8E
:1001F0005A607B68181C0A2100F0B8F8031C7B6069
:100200007B68181C0A2100F007F90B1C1A1C0E4B06
:100210005200D35A1AB20D4B9A607B68181C0A21FF
:1002200000F0A4F8031C7B607B68181C0A2100F016
:10023000F3F80B1C1A1C044B5200D35A1AB2034B8E
:10024000DA60BD4602B080BD30040000000000103E
:1002500080B500AF1E4B0E221A601D4B1C4A116860
:100260001C4A126852010A431A601B4B181CFFF704
:100270008DFF174B16221A60154B154A1168154A47
:10028000526852010A431A60134B181CFFF77EFF95
:100290000F4B1A221A600E4B0D4A11680D4A9268D4
:1002A00052010A431A600C4B181CFFF76FFF084BF2
:1002B0001C221A60064B064A1168064AD26852018F
:1002C0000A431A60044B181CFFF760FFBD4680BD4F
:1002D000FC3F0050000000101027000080B500AF68
:1002E0000D4B0D4A12680D490A431A600C4B0D4A1A
:1002F0001A600D4B1E221A600C4B0C4A12688021AA
:1003000049000A431A600A4B01221A60094B012274
:100310001A60BD4680BDC046808004404000010098
:1003200000800050FE0F0000FC3F005034400440AD
:10033000684004407440044080B582B000AFFFF7CD
:10034000CDFF00237B607B685A1C7A60181CFFF786
:100350002BFFFFF77DFF7A68034B9A4202DD0023F3
:100360007B60F0E7EFE7C0460F270000002941D08F
:1003700010B4041C4C40A44601230022002900D5DF
:100380004942002800D5404288422CD3012424074A
:10039000A14204D2814202D209011B01F8E7E40024
:1003A000A14204D2814202D249005B00F8E78842B0
:1003B00001D3401A1A434C08A04202D3001B5C0828
:1003C00022438C08A04202D3001B9C082243CC0885
:1003D000A04202D3001BDC082243002803D01B09E3
:1003E00001D00909E3E7101C6446002C00D5404207
:1003F00010BC7047002806D003DB0020C043400833
:1004000001E08020000607B4024802A140180290D3
:1004100003BDC046190000000029EBD003B5FFF76B
:10042000A7FF0EBC4243891A1847C0467047C04612
:100430003F0006005B004F0066006D007D00070076
:040440007F006F00CA
:00000001FF
