:10000000002000100D01000099010000990100007E
:1000100000000000000000000000000000000000E0
:100020000000000000000000000000009901000036
:10003000000000000000000099010000A101000084
:100040009901000099010000990100009901000048
:100050009901000099010000990100009901000038
:100060009901000099010000990100009901000028
:100070009901000099010000990100009901000018
:100080009901000099010000990100009901000008
:1000900099010000990100009901000099010000F8
:1000A00099010000990100009901000099010000E8
:1000B00099010000990100009901000099010000D8
:1000C00080B500AF0B4B00221A600B4B23221A6045
:1000D0000A4B0A4A126880218A431A60084B01229F
:1000E0001A60084B03221A60074B01221A60BD46B2
:1000F00080BDC046408004400880044038820440EF
:1001000044800440708004407480044080B584B012
:1001100000AF1C4BFB601C4BBB601C4A1A4BD31A34
:100120007B6009E0FB681A78BB681A70BB68013312
:10013000BB60FB680133FB607B685A1E9341DBB2F6
:100140007A68013A7A60002BECD1114BBB60114AFE
:100150000F4BD31A7B6005E0BB6800221A70BB68A6
:100160000133BB607B685A1E9341DBB27A68013A67
:100170007A60002BF0D1FFF7A3FF00F0A5F9BD4690
:1001800004B080BDD4050000000000100400001081
:10019000040000101400001080B500AFFEE7C04658
:1001A00080B500AF234B1B68022B13D002DC012B60
:1001B00005D030E0032B18D0042B21D02BE01E4BB0
:1001C0000E221A601C4B1C4A11681C4A12680A4312
:1001D0001A6020E0184B16221A60174B164A116855
:1001E000164A52680A431A6015E0134B1A221A6025
:1001F000114B114A1168114A92680A431A600AE0C9
:100200000D4B1C221A600C4B0B4A11680B4AD2682A
:100210000A431A60C046074B1B685A1C054B1A60FC
:10022000044B1B68042B02DD024B01221A60BD4601
:1002300080BDC04600000010FC3F005004000010CC
:1002400080B500AF074B074A126807210A431A60BE
:10025000054B064A1A60064B05221A6062B6BD4677
:1002600080BDC04610E000E014E000E07FBB00006D
:1002700018E000E080B582B000AF7860C0467B68CF
:100280005A1E9341DBB27A68013A7A60002BF6D1AC
:10029000BD4602B080BDC04680B582B000AF786078
:1002A0007B68181C0A2100F07FF90B1C1A1C224BDA
:1002B0005200D35A1AB2214B1A607B68181C0A21CB
:1002C00000F01CF9031C7B607B68181C0A2100F0FD
:1002D0006BF90B1C1A1C184B5200D35A1AB2174B4D
:1002E0005A607B68181C0A2100F008F9031C7B6027
:1002F0007B68181C0A2100F057F90B1C1A1C0E4BC6
:100300005200D35A1AB20D4B9A607B68181C0A210E
:1003100000F0F4F8031C7B607B68181C0A2100F0D5
:1003200043F90B1C1A1C044B5200D35A1AB2034B4C
:10033000DA60BD4602B080BDC005000004000010B8
:1003400080B500AF214B214A126821490A431A6047
:10035000204B214A1A60214B1E221A60204B204A52
:100360001268802149000A431A601E4B01221A605C
:100370001D4B01221A601D4B1C4A126811210A43B1
:100380001A601B4B1A4A126811210A431A60194B52
:10039000184A126811210A431A60174B164A12684C
:1003A00011210A431A60154B154A1A60154B154A5C
:1003B00012688A2189000A431A60124B114A116897
:1003C000114A0A401A60BD4680BDC0468080044084
:1003D0004000010000800050FE0F0000FC3F005074
:1003E0003440044068400440744004407840044075
:1003F0007C4004408040044090400440FC3F015059
:10040000FF0F000000800150F9FEFFFF80B500AF34
:100410002B4B2B4A12688A2189000A431A60284B09
:10042000274A126820218A431A60254B1A688023C4
:100430005B00134001D131233FE0214B1A680223B6
:10044000134001D1342338E01D4B1A6804231340B4
:1004500001D1372331E01A4B1A681023134001D120
:100460002A232AE0164B164A12688A2189000A4379
:100470001A60134B124A1168124A0A401A60104B54
:100480001A6880235B00134001D1322315E00C4B26
:100490001A680223134001D135230EE0084B1A6875
:1004A0000423134001D1382307E0054B1A681023B9
:1004B000134001D1302300E00023181CBD4680BD4D
:1004C000FC3F0150FFFDFFFF80B582B000AFFFF79A
:1004D000B7FEFFF735FF00237B6000E0C046FFF763
:1004E00095FF031C181CFFF7D7FE7A68024B9A424F
:1004F000F4DD00237B60F1E70F270000002941D0E5
:1005000010B4041C4C40A44601230022002900D54D
:100510004942002800D5404288422CD301242407B8
:10052000A14204D2814202D209011B01F8E7E40092
:10053000A14204D2814202D249005B00F8E788421E
:1005400001D3401A1A434C08A04202D3001B5C0896
:1005500022438C08A04202D3001B9C082243CC08F3
:10056000A04202D3001BDC082243002803D01B0951
:1005700001D00909E3E7101C6446002C00D5404275
:1005800010BC7047002806D003DB0020C0434008A1
:1005900001E08020000607B4024802A14018029042
:1005A00003BDC046190000000029EBD003B5FFF7DA
:1005B000A7FF0EBC4243891A1847C0467047C04681
:1005C000E007C000600BE009C00CA00DA00FE00028
:0405D000E00FE00D4B
:0405D4000100000022
:00000001FF
